{
  "abi": [
    {
      "inputs": [
        {
          "internalType": "string",
          "name": "name_",
          "type": "string"
        },
        {
          "internalType": "string",
          "name": "symbol_",
          "type": "string"
        }
      ],
      "stateMutability": "nonpayable",
      "type": "constructor"
    },
    {
      "anonymous": false,
      "inputs": [
        {
          "indexed": true,
          "internalType": "address",
          "name": "owner",
          "type": "address"
        },
        {
          "indexed": true,
          "internalType": "address",
          "name": "approved",
          "type": "address"
        },
        {
          "indexed": true,
          "internalType": "uint256",
          "name": "tokenId",
          "type": "uint256"
        }
      ],
      "name": "Approval",
      "type": "event"
    },
    {
      "anonymous": false,
      "inputs": [
        {
          "indexed": true,
          "internalType": "address",
          "name": "owner",
          "type": "address"
        },
        {
          "indexed": true,
          "internalType": "address",
          "name": "operator",
          "type": "address"
        },
        {
          "indexed": false,
          "internalType": "bool",
          "name": "approved",
          "type": "bool"
        }
      ],
      "name": "ApprovalForAll",
      "type": "event"
    },
    {
      "anonymous": false,
      "inputs": [
        {
          "indexed": true,
          "internalType": "address",
          "name": "owner",
          "type": "address"
        },
        {
          "indexed": true,
          "internalType": "address",
          "name": "buyer",
          "type": "address"
        },
        {
          "indexed": true,
          "internalType": "uint256",
          "name": "tokenId",
          "type": "uint256"
        }
      ],
      "name": "Buy",
      "type": "event"
    },
    {
      "anonymous": false,
      "inputs": [
        {
          "indexed": true,
          "internalType": "address",
          "name": "owner",
          "type": "address"
        },
        {
          "indexed": true,
          "internalType": "uint256",
          "name": "price",
          "type": "uint256"
        },
        {
          "indexed": true,
          "internalType": "uint256",
          "name": "tokenId",
          "type": "uint256"
        }
      ],
      "name": "SetForSale",
      "type": "event"
    },
    {
      "anonymous": false,
      "inputs": [
        {
          "indexed": true,
          "internalType": "address",
          "name": "from",
          "type": "address"
        },
        {
          "indexed": true,
          "internalType": "address",
          "name": "to",
          "type": "address"
        },
        {
          "indexed": true,
          "internalType": "uint256",
          "name": "tokenId",
          "type": "uint256"
        }
      ],
      "name": "Transfer",
      "type": "event"
    },
    {
      "inputs": [
        {
          "internalType": "address",
          "name": "to",
          "type": "address"
        },
        {
          "internalType": "uint256",
          "name": "tokenId",
          "type": "uint256"
        }
      ],
      "name": "approve",
      "outputs": [],
      "stateMutability": "nonpayable",
      "type": "function"
    },
    {
      "inputs": [
        {
          "internalType": "address",
          "name": "owner",
          "type": "address"
        }
      ],
      "name": "balanceOf",
      "outputs": [
        {
          "internalType": "uint256",
          "name": "",
          "type": "uint256"
        }
      ],
      "stateMutability": "view",
      "type": "function"
    },
    {
      "inputs": [
        {
          "internalType": "uint256",
          "name": "tokenId",
          "type": "uint256"
        }
      ],
      "name": "buy",
      "outputs": [],
      "stateMutability": "payable",
      "type": "function"
    },
    {
      "inputs": [
        {
          "internalType": "uint256",
          "name": "tokenId",
          "type": "uint256"
        }
      ],
      "name": "getApproved",
      "outputs": [
        {
          "internalType": "address",
          "name": "",
          "type": "address"
        }
      ],
      "stateMutability": "view",
      "type": "function"
    },
    {
      "inputs": [
        {
          "internalType": "uint256",
          "name": "tokenId",
          "type": "uint256"
        }
      ],
      "name": "getPrice",
      "outputs": [
        {
          "internalType": "uint256",
          "name": "",
          "type": "uint256"
        }
      ],
      "stateMutability": "view",
      "type": "function"
    },
    {
      "inputs": [
        {
          "internalType": "address",
          "name": "owner",
          "type": "address"
        },
        {
          "internalType": "address",
          "name": "operator",
          "type": "address"
        }
      ],
      "name": "isApprovedForAll",
      "outputs": [
        {
          "internalType": "bool",
          "name": "",
          "type": "bool"
        }
      ],
      "stateMutability": "view",
      "type": "function"
    },
    {
      "inputs": [
        {
          "internalType": "uint256",
          "name": "tokenId",
          "type": "uint256"
        }
      ],
      "name": "isSetForSale",
      "outputs": [
        {
          "internalType": "bool",
          "name": "",
          "type": "bool"
        }
      ],
      "stateMutability": "view",
      "type": "function"
    },
    {
      "inputs": [],
      "name": "name",
      "outputs": [
        {
          "internalType": "string",
          "name": "",
          "type": "string"
        }
      ],
      "stateMutability": "view",
      "type": "function"
    },
    {
      "inputs": [
        {
          "internalType": "uint256",
          "name": "tokenId",
          "type": "uint256"
        }
      ],
      "name": "ownerOf",
      "outputs": [
        {
          "internalType": "address",
          "name": "",
          "type": "address"
        }
      ],
      "stateMutability": "view",
      "type": "function"
    },
    {
      "inputs": [
        {
          "internalType": "address",
          "name": "from",
          "type": "address"
        },
        {
          "internalType": "address",
          "name": "to",
          "type": "address"
        },
        {
          "internalType": "uint256",
          "name": "tokenId",
          "type": "uint256"
        }
      ],
      "name": "safeTransferFrom",
      "outputs": [],
      "stateMutability": "nonpayable",
      "type": "function"
    },
    {
      "inputs": [
        {
          "internalType": "address",
          "name": "from",
          "type": "address"
        },
        {
          "internalType": "address",
          "name": "to",
          "type": "address"
        },
        {
          "internalType": "uint256",
          "name": "tokenId",
          "type": "uint256"
        },
        {
          "internalType": "bytes",
          "name": "data",
          "type": "bytes"
        }
      ],
      "name": "safeTransferFrom",
      "outputs": [],
      "stateMutability": "nonpayable",
      "type": "function"
    },
    {
      "inputs": [
        {
          "internalType": "address",
          "name": "operator",
          "type": "address"
        },
        {
          "internalType": "bool",
          "name": "approved",
          "type": "bool"
        }
      ],
      "name": "setApprovalForAll",
      "outputs": [],
      "stateMutability": "nonpayable",
      "type": "function"
    },
    {
      "inputs": [
        {
          "internalType": "uint256",
          "name": "tokenId",
          "type": "uint256"
        },
        {
          "internalType": "uint256",
          "name": "amount",
          "type": "uint256"
        }
      ],
      "name": "setForSale",
      "outputs": [],
      "stateMutability": "nonpayable",
      "type": "function"
    },
    {
      "inputs": [
        {
          "internalType": "bytes4",
          "name": "interfaceId",
          "type": "bytes4"
        }
      ],
      "name": "supportsInterface",
      "outputs": [
        {
          "internalType": "bool",
          "name": "",
          "type": "bool"
        }
      ],
      "stateMutability": "view",
      "type": "function"
    },
    {
      "inputs": [],
      "name": "symbol",
      "outputs": [
        {
          "internalType": "string",
          "name": "",
          "type": "string"
        }
      ],
      "stateMutability": "view",
      "type": "function"
    },
    {
      "inputs": [
        {
          "internalType": "uint256",
          "name": "tokenId",
          "type": "uint256"
        }
      ],
      "name": "tokenURI",
      "outputs": [
        {
          "internalType": "string",
          "name": "",
          "type": "string"
        }
      ],
      "stateMutability": "view",
      "type": "function"
    },
    {
      "inputs": [
        {
          "internalType": "address",
          "name": "from",
          "type": "address"
        },
        {
          "internalType": "address",
          "name": "to",
          "type": "address"
        },
        {
          "internalType": "uint256",
          "name": "tokenId",
          "type": "uint256"
        }
      ],
      "name": "transferFrom",
      "outputs": [],
      "stateMutability": "nonpayable",
      "type": "function"
    }
  ],
  "bytecode": {
    "object": "0x60806040523480156200001157600080fd5b50604051620019d8380380620019d88339810160408190526200003491620002d8565b81816000620000448382620003d1565b506001620000538282620003d1565b505050620000693360016200007160201b60201c565b50506200049d565b6001600160a01b038216620000cd5760405162461bcd60e51b815260206004820181905260248201527f4552433732313a206d696e7420746f20746865207a65726f206164647265737360448201526064015b60405180910390fd5b6000818152600260205260409020546001600160a01b031615620001345760405162461bcd60e51b815260206004820152601c60248201527f4552433732313a20746f6b656e20616c7265616479206d696e746564000000006044820152606401620000c4565b600081815260066020908152604080832083905560029091529020546001600160a01b031615620001a85760405162461bcd60e51b815260206004820152601c60248201527f4552433732313a20746f6b656e20616c7265616479206d696e746564000000006044820152606401620000c4565b6001600160a01b038216600081815260036020908152604080832080546001019055848352600290915280822080546001600160a01b0319168417905551839291907fddf252ad1be2c89b69c2b068fc378daa952ba7f163c4a11628f55a4df523b3ef908290a45050565b634e487b7160e01b600052604160045260246000fd5b600082601f8301126200023b57600080fd5b81516001600160401b038082111562000258576200025862000213565b604051601f8301601f19908116603f0116810190828211818310171562000283576200028362000213565b81604052838152602092508683858801011115620002a057600080fd5b600091505b83821015620002c45785820183015181830184015290820190620002a5565b600093810190920192909252949350505050565b60008060408385031215620002ec57600080fd5b82516001600160401b03808211156200030457600080fd5b620003128683870162000229565b935060208501519150808211156200032957600080fd5b50620003388582860162000229565b9150509250929050565b600181811c908216806200035757607f821691505b6020821081036200037857634e487b7160e01b600052602260045260246000fd5b50919050565b601f821115620003cc57600081815260208120601f850160051c81016020861015620003a75750805b601f850160051c820191505b81811015620003c857828155600101620003b3565b5050505b505050565b81516001600160401b03811115620003ed57620003ed62000213565b6200040581620003fe845462000342565b846200037e565b602080601f8311600181146200043d5760008415620004245750858301515b600019600386901b1c1916600185901b178555620003c8565b600085815260208120601f198616915b828110156200046e578886015182559484019460019091019084016200044d565b50858210156200048d5787850151600019600388901b60f8161c191681555b5050505050600190811b01905550565b61152b80620004ad6000396000f3fe6080604052600436106100fe5760003560e01c806370a0823111610095578063b88d4fde11610064578063b88d4fde146102b7578063c87b56dd146102d7578063d96a094a146102f7578063e75722301461030a578063e985e9c51461033757600080fd5b806370a0823114610234578063947859a81461026257806395d89b4114610282578063a22cb4651461029757600080fd5b806317fcfe22116100d157806317fcfe22146101b457806323b872dd146101d457806342842e0e146101f45780636352211e1461021457600080fd5b806301ffc9a71461010357806306fdde0314610138578063081812fc1461015a578063095ea7b314610192575b600080fd5b34801561010f57600080fd5b5061012361011e366004611095565b610357565b60405190151581526020015b60405180910390f35b34801561014457600080fd5b5061014d610382565b60405161012f9190611102565b34801561016657600080fd5b5061017a610175366004611115565b610414565b6040516001600160a01b03909116815260200161012f565b34801561019e57600080fd5b506101b26101ad36600461114a565b61043b565b005b3480156101c057600080fd5b506101b26101cf366004611174565b610555565b3480156101e057600080fd5b506101b26101ef366004611196565b6105fe565b34801561020057600080fd5b506101b261020f366004611196565b61062f565b34801561022057600080fd5b5061017a61022f366004611115565b61064a565b34801561024057600080fd5b5061025461024f3660046111d2565b6106aa565b60405190815260200161012f565b34801561026e57600080fd5b5061012361027d366004611115565b610730565b34801561028e57600080fd5b5061014d610746565b3480156102a357600080fd5b506101b26102b23660046111ed565b610755565b3480156102c357600080fd5b506101b26102d236600461123f565b610764565b3480156102e357600080fd5b5061014d6102f2366004611115565b61079c565b6101b2610305366004611115565b610810565b34801561031657600080fd5b50610254610325366004611115565b60009081526006602052604090205490565b34801561034357600080fd5b5061012361035236600461131b565b6109ce565b60006001600160e01b03198216630bdb98cf60e41b148061037c575061037c826109fc565b92915050565b6060600080546103919061134e565b80601f01602080910402602001604051908101604052809291908181526020018280546103bd9061134e565b801561040a5780601f106103df5761010080835404028352916020019161040a565b820191906000526020600020905b8154815290600101906020018083116103ed57829003601f168201915b5050505050905090565b600061041f82610a4c565b506000908152600460205260409020546001600160a01b031690565b60006104468261064a565b9050806001600160a01b0316836001600160a01b0316036104b85760405162461bcd60e51b815260206004820152602160248201527f4552433732313a20617070726f76616c20746f2063757272656e74206f776e656044820152603960f91b60648201526084015b60405180910390fd5b336001600160a01b03821614806104d457506104d481336109ce565b6105465760405162461bcd60e51b815260206004820152603d60248201527f4552433732313a20617070726f76652063616c6c6572206973206e6f7420746f60448201527f6b656e206f776e6572206f7220617070726f76656420666f7220616c6c00000060648201526084016104af565b6105508383610aae565b505050565b61055e8261064a565b6001600160a01b0316336001600160a01b0316146105be5760405162461bcd60e51b815260206004820152601960248201527f4552433732315472616461626c653a206e6f74206f776e65720000000000000060448201526064016104af565b600082815260066020526040808220839055518391839133917fbdf288d5dd39d9e9b531379ac66ea26a3aba56cadc493e9262ce72a3ebdfcbb591a45050565b6106083382610b1c565b6106245760405162461bcd60e51b81526004016104af90611388565b610550838383610b40565b61055083838360405180602001604052806000815250610764565b6000818152600260205260408120546001600160a01b03168061037c5760405162461bcd60e51b8152602060048201526018602482015277115490cdcc8c4e881a5b9d985b1a59081d1bdad95b88125160421b60448201526064016104af565b60006001600160a01b0382166107145760405162461bcd60e51b815260206004820152602960248201527f4552433732313a2061646472657373207a65726f206973206e6f7420612076616044820152683634b21037bbb732b960b91b60648201526084016104af565b506001600160a01b031660009081526003602052604090205490565b600081815260066020526040812054151561037c565b6060600180546103919061134e565b610760338383610cb3565b5050565b61076e3383610b1c565b61078a5760405162461bcd60e51b81526004016104af90611388565b61079684848484610d81565b50505050565b60606107a782610a4c565b60006107be60408051602081019091526000815290565b905060008151116107de5760405180602001604052806000815250610809565b806107e884610db4565b6040516020016107f99291906113d5565b6040516020818303038152906040525b9392505050565b600081815260066020526040902054806108765760405162461bcd60e51b815260206004820152602160248201527f4552433732315472616461626c653a20746f6b656e206e6f74206f6e2073616c6044820152606560f81b60648201526084016104af565b8034146108c55760405162461bcd60e51b815260206004820152601f60248201527f4552433732315472616461626c653a20696e636f72726563742076616c75650060448201526064016104af565b3360006108d18461064a565b90506108ee81838660405180602001604052806000815250610d81565b6000816001600160a01b03163460405160006040518083038185875af1925050503d806000811461093b576040519150601f19603f3d011682016040523d82523d6000602084013e610940565b606091505b50509050806109865760405162461bcd60e51b81526020600482015260126024820152710ccc2d2d8cac840e8de40e6cadcc840cae8d60731b60448201526064016104af565b84836001600160a01b0316836001600160a01b03167fd0c183be209f70036b50de16805d88249019e1288d7b77ef877710999c0d08e660405160405180910390a45050505050565b6001600160a01b03918216600090815260056020908152604080832093909416825291909152205460ff1690565b60006001600160e01b031982166380ac58cd60e01b1480610a2d57506001600160e01b03198216635b5e139f60e01b145b8061037c57506301ffc9a760e01b6001600160e01b031983161461037c565b6000818152600260205260409020546001600160a01b0316610aab5760405162461bcd60e51b8152602060048201526018602482015277115490cdcc8c4e881a5b9d985b1a59081d1bdad95b88125160421b60448201526064016104af565b50565b600081815260046020526040902080546001600160a01b0319166001600160a01b0384169081179091558190610ae38261064a565b6001600160a01b03167f8c5be1e5ebec7d5bd14f71427d1e84f3dd0314c0f7b2291e5b200ac8c7c3b92560405160405180910390a45050565b6000306001600160a01b03841603610b365750600161037c565b6108098383610e47565b826001600160a01b0316610b538261064a565b6001600160a01b031614610b795760405162461bcd60e51b81526004016104af90611404565b6001600160a01b038216610bdb5760405162461bcd60e51b8152602060048201526024808201527f4552433732313a207472616e7366657220746f20746865207a65726f206164646044820152637265737360e01b60648201526084016104af565b600081815260066020526040812055826001600160a01b0316610bfd8261064a565b6001600160a01b031614610c235760405162461bcd60e51b81526004016104af90611404565b600081815260046020908152604080832080546001600160a01b03199081169091556001600160a01b0387811680865260038552838620805460001901905590871680865283862080546001019055868652600290945282852080549092168417909155905184937fddf252ad1be2c89b69c2b068fc378daa952ba7f163c4a11628f55a4df523b3ef91a4505050565b816001600160a01b0316836001600160a01b031603610d145760405162461bcd60e51b815260206004820152601960248201527f4552433732313a20617070726f766520746f2063616c6c65720000000000000060448201526064016104af565b6001600160a01b03838116600081815260056020908152604080832094871680845294825291829020805460ff191686151590811790915591519182527f17307eab39ab6107e8899845ad3d59bd9653f200f220920489ca2b5937696c31910160405180910390a3505050565b610d8c848484610b40565b610d9884848484610ea6565b6107965760405162461bcd60e51b81526004016104af90611449565b60606000610dc183610fa7565b600101905060008167ffffffffffffffff811115610de157610de1611229565b6040519080825280601f01601f191660200182016040528015610e0b576020820181803683370190505b5090508181016020015b600019016f181899199a1a9b1b9c1cb0b131b232b360811b600a86061a8153600a8504945084610e1557509392505050565b600080610e538361064a565b9050806001600160a01b0316846001600160a01b03161480610e7a5750610e7a81856109ce565b80610e9e5750836001600160a01b0316610e9384610414565b6001600160a01b0316145b949350505050565b60006001600160a01b0384163b15610f9c57604051630a85bd0160e11b81526001600160a01b0385169063150b7a0290610eea90339089908890889060040161149b565b6020604051808303816000875af1925050508015610f25575060408051601f3d908101601f19168201909252610f22918101906114d8565b60015b610f82573d808015610f53576040519150601f19603f3d011682016040523d82523d6000602084013e610f58565b606091505b508051600003610f7a5760405162461bcd60e51b81526004016104af90611449565b805181602001fd5b6001600160e01b031916630a85bd0160e11b149050610e9e565b506001949350505050565b60008072184f03e93ff9f4daa797ed6e38ed64bf6a1f0160401b8310610fe65772184f03e93ff9f4daa797ed6e38ed64bf6a1f0160401b830492506040015b6d04ee2d6d415b85acef81000000008310611012576d04ee2d6d415b85acef8100000000830492506020015b662386f26fc10000831061103057662386f26fc10000830492506010015b6305f5e1008310611048576305f5e100830492506008015b612710831061105c57612710830492506004015b6064831061106e576064830492506002015b600a831061037c5760010192915050565b6001600160e01b031981168114610aab57600080fd5b6000602082840312156110a757600080fd5b81356108098161107f565b60005b838110156110cd5781810151838201526020016110b5565b50506000910152565b600081518084526110ee8160208601602086016110b2565b601f01601f19169290920160200192915050565b60208152600061080960208301846110d6565b60006020828403121561112757600080fd5b5035919050565b80356001600160a01b038116811461114557600080fd5b919050565b6000806040838503121561115d57600080fd5b6111668361112e565b946020939093013593505050565b6000806040838503121561118757600080fd5b50508035926020909101359150565b6000806000606084860312156111ab57600080fd5b6111b48461112e565b92506111c26020850161112e565b9150604084013590509250925092565b6000602082840312156111e457600080fd5b6108098261112e565b6000806040838503121561120057600080fd5b6112098361112e565b91506020830135801515811461121e57600080fd5b809150509250929050565b634e487b7160e01b600052604160045260246000fd5b6000806000806080858703121561125557600080fd5b61125e8561112e565b935061126c6020860161112e565b925060408501359150606085013567ffffffffffffffff8082111561129057600080fd5b818701915087601f8301126112a457600080fd5b8135818111156112b6576112b6611229565b604051601f8201601f19908116603f011681019083821181831017156112de576112de611229565b816040528281528a60208487010111156112f757600080fd5b82602086016020830137600060208483010152809550505050505092959194509250565b6000806040838503121561132e57600080fd5b6113378361112e565b91506113456020840161112e565b90509250929050565b600181811c9082168061136257607f821691505b60208210810361138257634e487b7160e01b600052602260045260246000fd5b50919050565b6020808252602d908201527f4552433732313a2063616c6c6572206973206e6f7420746f6b656e206f776e6560408201526c1c881bdc88185c1c1c9bdd9959609a1b606082015260800190565b600083516113e78184602088016110b2565b8351908301906113fb8183602088016110b2565b01949350505050565b60208082526025908201527f4552433732313a207472616e736665722066726f6d20696e636f72726563742060408201526437bbb732b960d91b606082015260800190565b60208082526032908201527f4552433732313a207472616e7366657220746f206e6f6e20455243373231526560408201527131b2b4bb32b91034b6b83632b6b2b73a32b960711b606082015260800190565b6001600160a01b03858116825284166020820152604081018390526080606082018190526000906114ce908301846110d6565b9695505050505050565b6000602082840312156114ea57600080fd5b81516108098161107f56fea2646970667358221220ddea4e9a3f525471e7c4d9228c2fd629fd1be522c379de9d2122c8f066baa48064736f6c63430008120033",
    "linkReferences": {}
  },
  "methodIdentifiers": {
    "approve(address,uint256)": "095ea7b3",
    "balanceOf(address)": "70a08231",
    "buy(uint256)": "d96a094a",
    "getApproved(uint256)": "081812fc",
    "getPrice(uint256)": "e7572230",
    "isApprovedForAll(address,address)": "e985e9c5",
    "isSetForSale(uint256)": "947859a8",
    "name()": "06fdde03",
    "ownerOf(uint256)": "6352211e",
    "safeTransferFrom(address,address,uint256)": "42842e0e",
    "safeTransferFrom(address,address,uint256,bytes)": "b88d4fde",
    "setApprovalForAll(address,bool)": "a22cb465",
    "setForSale(uint256,uint256)": "17fcfe22",
    "supportsInterface(bytes4)": "01ffc9a7",
    "symbol()": "95d89b41",
    "tokenURI(uint256)": "c87b56dd",
    "transferFrom(address,address,uint256)": "23b872dd"
  },
  "id": 25
}